:020000040800F2
:10000000800700209901000849080008C907000876
:1000100045080008D1040008391600080000000057
:10002000000000000000000000000000410B00087C
:10003000D504000800000000790900082D0C000814
:10004000B3010008B3010008B3010008B3010008C0
:10005000B3010008B3010008B3010008B3010008B0
:10006000B3010008B3010008B3010008B3010008A0
:10007000B3010008B3010008B3010008B301000890
:10008000B3010008B3010008B3010008B301000880
:10009000B3010008B3010008B3010008B301000870
:1000A000B3010008B3010008B3010008B301000860
:1000B000B3010008B3010008910C0008B301000867
:1000C000B3010008B3010008B3010008B301000840
:1000D000B3010008B3010008B3010008B301000830
:1000E000B3010008B3010008B301000800F002F8F2
:1000F00000F042F80AA090E8000C82448344AAF180
:100100000107DA4501D100F037F8AFF2090EBAE87D
:100110000F0013F0010F18BFFB1A43F0010318473B
:100120000018000020180000103A24BF78C878C1D9
:10013000FAD8520724BF30C830C144BF04680C60ED
:10014000704700000023002400250026103A28BF35
:1001500078C1FBD8520728BF30C148BF0B60704739
:10016000642900F0A580732900F04D8100207047BC
:100170001FB51FBD10B510BD00F078F91146FFF78F
:10018000F7FF01F08DFA00F096F903B4FFF7F2FFE4
:1001900003BC01F053FA00000948804709480047B2
:1001A000FEE7FEE7FEE7FEE7FEE7FEE7FEE7FEE727
:1001B000FEE7FEE704480549054A064B7047000084
:1001C000310C0008ED0000088001002080070020AD
:1001D0008003002080030020704700000FB4044912
:1001E00010B503AA029800F013F910BC5DF814FBD7
:1001F000100000202DE9F0410E4604460020206248
:100200002046E168884730B3252805D0D4E901218C
:100210009047206A401CF2E7E168204600278847A3
:10022000050018D0A5F14100192802D820354FF457
:1002300000673246294620462760FFF791FF40B10C
:10024000012804D0F61D26F007060836D8E7361D2B
:10025000D6E72846DAE7206ABDE8F08170B50C469B
:100260000546012A05D02878800600D5EA690023D2
:1002700002E0012305E05B1C934202D2E05C00280F
:10028000F9D1A869E618C01AA861286A184428623A
:100290002846AFF3008004E0D5E9012114F8010BF2
:1002A0009047B442F8D32846AFF3008070BD0000F9
:1002B0002DE9F0410646002410687529314616A53F
:1002C00010D0AFF30080002802DA404213A507E007
:1002D00031688A0701D512A502E0490704D511A5A6
:1002E000012401E0AFF3008000210A2206F1240777
:1002F00009E0B0FBF2FCB0FBF2F302FB1C00303073
:1003000078541846491C0028F3D123462A46304623
:10031000BDE8F04100F00CB8000000002D00000026
:100320002B000000200000007047704770477047A6
:100330002DE9F0470D4699469246044600F12408FF
:100340000168880604D5E06921F01001216000E011
:100350000120A84201DD471B00E00027A1697A19AE
:1003600002EB0900081AA0612078C00602D42046DA
:10037000AFF30080002608E0D4E901211AF8060056
:100380009047206A401C761C20624E45F4DB2078A2
:10039000C0060AD52046AFF3008006E0D4E901216B
:1003A00030209047206A401C2062381EA7F10107C8
:1003B000F4DC07E0D4E9012118F805009047206A31
:1003C000401C2062281EA5F10105F3DC2046AFF396
:1003D00000802078000602D50220BDE8F0870120C9
:1003E000FBE710B5436913B1AFF3008001E0FFF7FD
:1003F00035FF012010BD127800F124010A7000229F
:100400004A700122EDE711684FF0FF32E9E7000082
:10041000074B70B50D467B4400F011F804462846A2
:1004200000F020F810B14FF0FF3070BD204670BDD5
:100430006B12000001694A1C02610878704700B520
:100440008FB0CDE901310021059105497944CDE90D
:10045000031011466846FFF7CDFE0FB000BD000047
:10046000E5FFFFFF007B00F080007047754600F05D
:100470002BF8AE4605006946534620F00700854636
:1004800018B020B5FFF796FEBDE820404FF00006FB
:100490004FF000074FF000084FF0000B21F007016C
:1004A000AC46ACE8C009ACE8C009ACE8C009ACE8AF
:1004B000C0098D46704710B50446AFF30080204652
:1004C000BDE81040FFF761BE004870471C010020E6
:1004D00000BFFEE7704700002DE9F05F05460C46BF
:1004E0004FF00009CA4600260027B046B3465948D7
:1004F000854211D0584885420ED0584885420BD0CD
:100500005748854208D05748854205D0564885420D
:1005100002D05648854200D103E0B22154A001F038
:100520008FF8E078A0B1E078042811D0E07828288E
:100530000ED0E07848280BD0E078142808D0E07876
:10054000102805D0E0781C2802D0E078182800D1C7
:1005500003E0B32146A001F073F8002010B9208811
:1005600000B103E0B42142A001F06AF8E07800F0A5
:100570000F09E07800F0100080B1A078012805D0C4
:10058000A078022802D0A078032800D103E0BB2184
:1005900037A001F055F8A07840EA0909207838B36F
:1005A000D5F8008000261FE0012000FA06F7208819
:1005B00000EA070ABA4516D1B7000F2000FA07FB78
:1005C00028EA0B0809FA07F040EA0808E07828282A
:1005D00003D10120B040686105E0E078482802D1ED
:1005E0000120B0402861761C082EDDD3C5F80080BC
:1005F0002088FF282BDDD5F80480002623E006F1B3
:100600000800012101FA00F7208800EA070ABA452C
:1006100018D1B7000F2000FA07FB28EA0B0809FAE7
:1006200007F040EA0808E078282803D106F108001E
:1006300081406961E078482804D106F10800012171
:1006400081402961761C082ED9D3C5F80480BDE805
:10065000F09F000000080140000C01400010014024
:100660000014014000180140001C0140002001401E
:100670002E2E5C4C69627261726965735C46574CE0
:1006800049425C7372635C73746D333266313078E7
:100690005F6770696F2E630070B504460D4613489E
:1006A000844211D0124884420ED0124884420BD0AA
:1006B0001148844208D01148844205D01048844231
:1006C00002D01048844200D104E040F279110EA01B
:1006D00000F0B6FF002008B905B104E04FF4BD7189
:1006E00009A000F0ADFF656170BD00000008014089
:1006F000000C0140001001400014014000180140AE
:10070000001C0140002001402E2E5C4C6962726189
:10071000726965735C46574C49425C7372635C73E3
:10072000746D3332663130785F6770696F2E6300A5
:1007300070B504460D461348844211D012488442D5
:100740000ED0124884420BD01148844208D0114880
:10075000844205D01048844202D01048844200D11F
:1007600004E040F269110EA000F06AFF002008B911
:1007700005B104E04FF4B57109A000F061FF2561F7
:1007800070BD000000080140000C01400010014055
:100790000014014000180140001C014000200140ED
:1007A0002E2E5C4C69627261726965735C46574CAF
:1007B00049425C7372635C73746D333266313078B6
:1007C0005F6770696F2E630000BFFEE770B5044677
:1007D0000D460948007838B120210848FFF75CFF32
:1007E00000200549087006E020210448FFF7A0FF1B
:1007F00001200149087070BD14000020000C014068
:1008000010B501210148FFF747FF10BD000C014062
:1008100008B50121082000F0EDF82120ADF8000016
:1008200001208DF8020010208DF80300694604486D
:10083000FFF752FE21210248FFF77AFF08BD0000B2
:10084000000C014000BFFEE7704700002DE9F041B9
:100850000446002500270F26E07810B1E078012833
:1008600000D103E0752121A000F0EAFE6078102895
:1008700000DA03E076211DA000F0E2FEA078102847
:1008800000DA03E0772119A000F0DAFEE07800B387
:100890001E48006800F4E060C0F5E060050AC5F19C
:1008A0000407EE40607800FA07F5A0783040054371
:1008B0002D01174822788554207800F01F0101206F
:1008C000884021784911890001F1E021C1F8000137
:1008D00009E0207800F01F01012088400D492278AE
:1008E000521141F82200BDE8F08100002E2E5C4C30
:1008F00069627261726965735C46574C49425C7308
:1009000072635C6D6973632E630000000CED00E0A0
:1009100000E400E080E100E010B50446B4F5E06FCB
:100920000BD0B4F5C06F08D0B4F5A06F05D0B4F506
:10093000806F02D0B4F5407F00D103E0632104A0B2
:1009400000F07EFE0A4820430A49086010BD0000FE
:100950002E2E5C4C69627261726965735C46574CFD
:1009600049425C7372635C6D6973632E63000000BF
:100970000000FA050CED00E07047000070B5044679
:100980000D461048204008B904B104E040F2694126
:100990000DA000F055FE0DB1012D00D104E040F294
:1009A0006A4109A000F04CFE2DB11148C0692043F6
:1009B0000F49C86104E00E48C069A0430C49C861F2
:1009C00070BD0000003601812E2E5C4C69627261A0
:1009D000726965735C46574C49425C7372635C7321
:1009E000746D3332663130785F7263632E6300005A
:1009F0000010024070B504460D461048204008B96A
:100A000004B104E040F24A410DA000F019FE0DB11E
:100A1000012D00D104E040F24B4109A000F010FE8E
:100A20002DB11148806920430F49886104E00E48C8
:100A30008069A0430C49886170BD00000200C0FFBE
:100A40002E2E5C4C69627261726965735C46574C0C
:100A500049425C7372635C73746D33326631307813
:100A60005F7263632E6300000010024030B5002106
:100A70000022002400232D4D6D6805F00C0121B1EA
:100A8000042905D0082923D105E0294D056022E07D
:100A9000274D05601FE0254D6D6805F47012234D4C
:100AA0006D6805F48034022505EB92421CB9214D96
:100AB000554305600BE01D4D6D6805F400351DB113
:100AC0001C4D5543056002E0194D5543056002E099
:100AD000174D056000BF00BF144D6D6805F0F001B3
:100AE0000909154D6B5C0568DD4045600F4D6D686B
:100AF00005F4E061090A104D6B5C4568DD408560D6
:100B00000A4D6D6805F46051C90A0B4D6B5C456870
:100B1000DD40C560054D6D6805F44041890B074D0A
:100B20006B5CC568B5FBF3F5056130BD0010024094
:100B300000127A0000093D00150000202500002069
:100B4000704710B500F002F810BD00000CB5002091
:100B5000019000903348006840F4803031490860CB
:100B600000BF3048006800F4003000900198401C3D
:100B70000190009818B90198B0F5A06FF1D12948FB
:100B8000006800F4003010B10120009001E0002066
:100B900000900098012843D12348006840F01000DD
:100BA000214908600846006820F0030008600846F4
:100BB000006840F0020008601A484068194948601F
:100BC0000846406848600846406840F480604860D5
:100BD0000846406820F47C1048600846406840F4AD
:100BE000E81048600846006840F08070086000BF68
:100BF0000C48006800F000700028F9D009484068EF
:100C000020F00300074948600846406840F00200B1
:100C1000486000BF0348406800F00C000828F9D184
:100C20000CBD000000100240002002407047000090
:100C300010B51348006840F00100114908600846EB
:100C40004068104908400E494860084600680E494F
:100C500008400B4908600846006820F480200860BE
:100C60000846406820F4FE0048604FF41F0088608A
:100C7000FFF767FF4FF000600449086010BD0000F7
:100C8000001002400000FFF8FFFFF6FE08ED00E054
:100C900010B50121054800F04BF928B101210348A6
:100CA00000F042F800F034FE10BD000000080040E3
:100CB0003EB5044604EB8400440001210420FFF704
:100CC0005DFE601E80B2ADF8040041F61F40ADF835
:100CD00000000020ADF80600ADF8020069460648A5
:100CE00000F04EFA01221146034800F0BBF9012141
:100CF000014800F097F83EBD0008004008B54FF4E9
:100D0000C060FFF709FE1E208DF8000001208DF85D
:100D1000010002208DF8020001208DF803006846D2
:100D2000FFF794FD08BD000070B504460D4623484A
:100D300084422FD0B4F1804F2CD02148844229D056
:100D40002048844226D02048844223D01F48844231
:100D500020D01F4884421DD01E4884421AD01E480D
:100D6000844217D01D48844214D01D48844211D0BB
:100D70001C4884420ED01C4884420BD01B4884423D
:100D800008D01B48844205D01A48844202D01A4831
:100D9000844200D104E040F6772118A000F050FC16
:100DA00005F47F4008B905B104E040F6782113A0AE
:100DB00000F046FCE843208270BD0000002C01409A
:100DC0000004004000080040000C004000100040FB
:100DD0000014004000340140004C0140005001402C
:100DE0000054014000180040001C0040002000405A
:100DF0000040014000440140004801402E2E5C4C60
:100E000069627261726965735C46574C49425C73F2
:100E100072635C73746D3332663130785F74696D00
:100E20002E63000070B504460D46274884422FD03B
:100E3000B4F1804F2CD02548844229D024488442E4
:100E400026D02448844223D02348844220D02348FB
:100E500084421DD0224884421AD02248844217D0AE
:100E60002148844214D02148844211D02048844231
:100E70000ED0204884420BD01F48844208D01F481F
:100E8000844205D01E48844202D01E48844200D1CC
:100E900004E040F229311CA000F0D2FB0DB1012D7D
:100EA00000D104E040F22A3117A000F0C9FB25B1BF
:100EB000208840F00100208004E020884FF6FE7179
:100EC0000840208070BD0000002C0140000400405C
:100ED00000080040000C00400010004000140040DA
:100EE00000340140004C01400050014000540140DA
:100EF00000180040001C004000200040004001405D
:100F000000440140004801402E2E5C4C6962726131
:100F1000726965735C46574C49425C7372635C73DB
:100F2000746D3332663130785F74696D2E63000002
:100F30002DE9F04104460D4600260027B0462F4813
:100F400084422FD0B4F1804F2CD02D48844229D038
:100F50002C48844226D02C48844223D02B488442FB
:100F600020D02B4884421DD02A4884421AD02A48D7
:100F7000844217D02948844214D02948844211D091
:100F8000284884420ED0284884420BD02748844207
:100F900008D02748844205D02648844202D02648FB
:100FA000844200D104E040F64D2124A000F048FB2B
:100FB000012D0DD0022D0BD0042D09D0082D07D006
:100FC000102D05D0202D03D0402D01D0802D00D133
:100FD00004E040F64E2119A000F032FB208A00EA1E
:100FE0000507A08900EA050827B1B8F1000F01D074
:100FF000012600E000263046BDE8F081002C0140CB
:101000000004004000080040000C004000100040B8
:101010000014004000340140004C014000500140E9
:101020000054014000180040001C00400020004017
:101030000040014000440140004801402E2E5C4C1D
:1010400069627261726965735C46574C49425C73B0
:1010500072635C73746D3332663130785F74696DBE
:101060002E63000070B504460D4616462A48844299
:101070002FD0B4F1804F2CD02848844229D0284862
:10108000844226D02748844223D02748844220D057
:10109000264884421DD0264884421AD025488442DE
:1010A00017D02548844214D02448844211D02448C3
:1010B00084420ED0234884420BD02348844208D077
:1010C0002248844205D02248844202D021488442EA
:1010D00000D104E040F26B311FA000F0B1FA05F43A
:1010E0007F4008B905B104E04FF45B711AA000F02D
:1010F000A7FA0EB1012E00D104E040F26D3116A026
:1011000000F09EFA1EB1A0892843A08102E0A089C8
:10111000A843A08170BD0000002C014000040040E5
:1011200000080040000C0040001000400014004087
:1011300000340140004C0140005001400054014087
:1011400000180040001C004000200040004001400A
:1011500000440140004801402E2E5C4C69627261DF
:10116000726965735C46574C49425C7372635C7389
:10117000746D3332663130785F74696D2E630000B0
:1011800070B504460D4600264A4884422FD0B4F17B
:10119000804F2CD04848844229D04848844226D0E9
:1011A0004748844223D04748844220D0464884425E
:1011B0001DD0464884421AD04548844217D045483D
:1011C000844214D04448844211D0444884420ED012
:1011D000434884420BD04348844208D0424884426A
:1011E00005D04248844202D04148844200D103E005
:1011F000E72140A000F024FA688858B168881028D8
:1012000008D06888202805D06888402802D06888DF
:10121000602800D103E0E82136A000F011FAE88848
:1012200038B1E888B0F5807F03D0E888B0F5007F5A
:1012300000D103E0E9212FA000F002FA26881D4822
:1012400084420ED0214884420BD0B4F1804F08D0A4
:101250001948844205D01948844202D01848844273
:1012600004D14FF68F7006406888064315488442C3
:1012700007D01548844204D04FF6FF400640E88866
:1012800006432680A888A0852888208509488442AE
:101290000BD00E48844208D01348844205D013482E
:1012A000844202D01248844201D1287A208601204B
:1012B000A08270BD002C01400004004000080040E6
:1012C000000C0040001000400014004000340140B9
:1012D000004C014000500140005401400018004003
:1012E000001C00400020004000400140004401403C
:1012F000004801402E2E5C4C696272617269657310
:101300005C46574C49425C7372635C73746D333254
:10131000663130785F74696D2E63000010B586B059
:101320000446012144F20400FFF764FB4FF400700F
:10133000ADF8140003208DF8160018208DF8170062
:1013400005A91248FFF7C8F84FF48060ADF8140003
:1013500004208DF8170005A90C48FFF7BDF801948B
:101360000020ADF80800ADF80A00ADF80C00ADF8AB
:1013700010000820ADF80E0001A9054800F058F84B
:101380000121034800F006F806B010BD0008014036
:101390000038014070B504460D46154884420BD014
:1013A0001448844208D01448844205D0134884422B
:1013B00002D01348844200D104E04FF4B17111A06F
:1013C00000F03EF90DB1012D00D104E040F26311AF
:1013D0000CA000F035F925B1A08940F40050A0819F
:1013E00004E0A0894DF6FF710840A08170BD0000A7
:1013F000003801400044004000480040004C0040DC
:10140000005000402E2E5C4C6962726172696573F7
:101410005C46574C49425C7372635C73746D333243
:10142000663130785F75736172742E63000000005E
:101430002DE9F04786B005460C460026B24600BFAF
:10144000B14600276B4885420BD06B48854208D0D7
:101450006A48854205D06A48854202D0694885427B
:1014600000D103E0B82168A000F0EAF8206820B1BC
:1014700070492068884200D203E0B92162A000F0E0
:10148000DFF8A08818B1A088B0F5805F00D103E034
:10149000BA215DA000F0D4F8E08858B1E088B0F53A
:1014A000805F07D0E088B0F5005F03D0E088B0F53A
:1014B000405F00D103E0BB2153A000F0C1F82089B8
:1014C00038B12089B0F5806F03D02089B0F5C06FA6
:1014D00000D103E0BC214CA000F0B2F860894FF6C7
:1014E000F371084010B9608900B103E0BD2146A046
:1014F00000F0A6F8A08958B1A089B0F5807F07D088
:10150000A089B0F5007F03D0A089B0F5407F00D15D
:1015100003E0BE213CA000F093F8A08968B13548F3
:10152000854205D03448854202D03448854200D1F6
:1015300003E0C22134A000F083F82F462E8A4CF637
:10154000FF700640E08806432E82AE894EF6F31007
:101550000640A08821890843618908430643AE817B
:10156000AE8A4FF6FF400640A0890643AE8201A82E
:10157000FFF77CFA1F48874202D1DDF810A001E096
:10158000DDF80CA0A88900F4004040B10AEBCA00C5
:1015900000EB0A1021684900B0FBF1F807E00AEB04
:1015A000CA0000EB0A1021688900B0FBF1F8642042
:1015B000B8FBF0F006013009642101FB1089A8890D
:1015C00000F4004040B1322000EBC900B0FBF1F064
:1015D00000F00700064308E0322000EB0910642108
:1015E000B0FBF1F000F00F0006432E8106B0BDE81D
:1015F000F0870000003801400044004000480040EF
:10160000004C0040005000402E2E5C4C696272611C
:10161000726965735C46574C49425C7372635C73D4
:10162000746D3332663130785F75736172742E6316
:101630000000000021AA440000BFFEE700BF704781
:1016400004460D462A46214602A0FEF7C7FD00BF0C
:10165000FEE7000057726F6E6720706172616D6502
:10166000746572732076616C75653A2066696C6585
:10167000202573206F6E206C696E652025640D0A2D
:101680000000000000BF054A128802F04002002A54
:10169000F9D0C2B2014B1B1D1A80704700380140BF
:1016A0001CB54FF4E130FFF739FE0120FFF700FBD6
:1016B000FFF724FBFFF7ACF816A0FEF78FFD05201F
:1016C0001B491C4B4FF47A72CDE9001000210846EB
:1016D00000F042F800200090174B4FF4FA720121FD
:1016E0000190084600F038F800200090134B40F6B7
:1016F000B83201460190022000F02EF808E000F018
:101700007DF8022000F01EF8022801D1FFF778F8DA
:10171000F5E7000049206A757374206772616262A0
:10172000656420612073706F6F6E2E0D0A000000DB
:1017300000000020D9180008CD0700084117000854
:1017400070470000014601EB4100024A12F83000E8
:10175000704700002C0000202DE9F04704460D469C
:1017600016461F46DDE908890A2C00DA03E04F21FE
:101770001BA0FFF765FF0DB1012D00D103E0502143
:1017800017A0FFF75DFF00F0BDF8304404EB440103
:10179000194A02EBC101486004EB4400114601EB19
:1017A000C0008660012004EB440102F8310004EB24
:1017B0004400114601EBC000457004EB440001EB0E
:1017C000C000C76004EB440001EBC000C0F810800B
:1017D00004EB440001EBC000A0F81490BDE8F087D2
:1017E0002E2E5C557365725C736F66745F74696DE1
:1017F00065722E63000000002C00002070B50024EC
:1018000056E004EB44002C4911F8300020B10128C7
:1018100003D0022844D121E047E000F073F804EB44
:101820004401254A02EBC1014968884215D30220D0
:1018300004EB440102F8310004EB4403154605EBC8
:10184000C303998A04EB440305EBC303186904EB53
:10185000440305EBC303DA68904726E004EB440039
:10186000154901EBC000407830B9002004EB440179
:10187000114A02F8310012E000F044F804EB440190
:101880000D4A02EBC1018968084404EB440102EBF4
:10189000C1014860012004EB440102F8310004E07A
:1018A000214606A0FEF79AFC00BF00BF601C84B270
:1018B0000A2CA6DB70BD00002C00002074696D6549
:1018C000725B25645D207374617465206572726F4C
:1018D00072210D0A0000000070B505460E46002476
:1018E00005E0295D05A0FEF779FC601C84B2B442D6
:1018F000F7DB03A0FEF772FC70BD0000256400005A
:101900000D0A000001480068704700000C0000202C
:1019100002480068401C0149086070470C00002024
:1019200040190008000000202C00000028010008D9
:101930006C1900082C000020540700004401000826
:10194000010203040506070809000000000000006A
:101950000000000001000000000102030401020376
:0C19600004060708090204060800000045
:04000005080000ED02
:00000001FF
